:200000000080202073030000EF020000EF02000000000000000000000000000000000000C8
:20002000000000000000000000000000EF0200000000000000000000EF020000EF020000ED
:20004000EF020000EF020000EF020000EF020000EF020000F1020000EF020000EF02000016
:2000600000000000EF020000EF0200000000000000000000EF020000EF020000EF020000CB
:20008000EF020000EF020000EF020000EF020000EF020000EF0200000000000000000000BA
:2000A000EF020000EF0200000000000000000000EF02000000000000EF020000EF0200008B
:2000C0001A4C00F031F91A48202101601948002101702268D20705D12268D20702D12268B0
:2000E000D207F6D0154B01246503154E05E0124A156001701A6822431A605F6822023A4321
:200100005A600278002A09D120BF0278002A05D120BF0278002A01D120BFF2E73268120491
:20012000D20EE4D0044A1561E3E7C0460411034000E100E00000202090320A4000310040C1
:200140008082554010B50E490E4800F023F8012041020D4A11600D490A68030413430B60CF
:2001600002021346F4334B61094B1C6A14431C621C6814431C600A6802430A6010BDC04655
:200180008C03000000200040803100400031004028300040F0B511221302C2180C780B4DD3
:2001A00046590B4F374003262640BC19A9263606A41944514C68C55807263606B543344068
:2001C0002C19C45048781061F0BDC04608080000FCFFFF0010B5094809494160094A5160CB
:2001E000094B5960891E094C616009490160116019602160102000F0B7F810BD00080A4029
:20020000030000B100280A4000280040000803400100002670B50A480A4C84420CD00A4D18
:200220000A4EB54208D02A686968501C12789200A25890470835F4E700BF00BF70BDC04612
:20024000A4030000A0030000A4030000AC0300000948002101600948014608390A680323BA
:200260009A430A60016801229143016001681202914301607047C04608030B4008010B405D
:20028000084880F3088800BF00BF00F074F8002801D0FFF7BFFF0020FFF712FF012000F04C
:2002A0006CF8C0460080202010B50549054C204600F051F80449204600F008F810BDC0469B
:2002C000940300000000034080030000B0B51122120283180C784D7825434C882C43A4B230
:2002E000845048688968090401439960B0BDFEE704480068C0B2092802D1034801210170E5
:200300007047C0462030004000002020044881210160012040030349086008647047C046C0
:200320007880424090320A4080B5FFF753FFFFF7EDFFFFF78DFFFFF705FFFFF7B5FF80BD75
:2003400003228058002805D0401E4A1C00230B701146F7E7704710B50122120383180C7839
:200360009C604978815010BD811E091F00BFFCD2704785E770470120704700BFFEE7000078
:1803800001000000000000000000000000050000000000030800000054
:180398000000000001000000410300009803000000002020000000002D
:00000001FF
